{
  "contractName": "OfferLib",
  "abi": [
    {
      "constant": true,
      "inputs": [
        {
          "name": "_state",
          "type": "bytes"
        }
      ],
      "name": "getCloseFlag",
      "outputs": [
        {
          "name": "_flag",
          "type": "uint8"
        }
      ],
      "payable": false,
      "stateMutability": "pure",
      "type": "function"
    },
    {
      "constant": true,
      "inputs": [
        {
          "name": "_state",
          "type": "bytes"
        }
      ],
      "name": "getSequence",
      "outputs": [
        {
          "name": "_seq",
          "type": "uint256"
        }
      ],
      "payable": false,
      "stateMutability": "pure",
      "type": "function"
    },
    {
      "constant": true,
      "inputs": [
        {
          "name": "_state",
          "type": "bytes"
        }
      ],
      "name": "getPartyA",
      "outputs": [
        {
          "name": "_ambassador",
          "type": "address"
        }
      ],
      "payable": false,
      "stateMutability": "pure",
      "type": "function"
    },
    {
      "constant": true,
      "inputs": [
        {
          "name": "_state",
          "type": "bytes"
        }
      ],
      "name": "getPartyB",
      "outputs": [
        {
          "name": "_expert",
          "type": "address"
        }
      ],
      "payable": false,
      "stateMutability": "pure",
      "type": "function"
    },
    {
      "constant": true,
      "inputs": [
        {
          "name": "_state",
          "type": "bytes"
        }
      ],
      "name": "getMultiSigAddress",
      "outputs": [
        {
          "name": "_multisig",
          "type": "address"
        }
      ],
      "payable": false,
      "stateMutability": "pure",
      "type": "function"
    },
    {
      "constant": true,
      "inputs": [
        {
          "name": "_state",
          "type": "bytes"
        }
      ],
      "name": "getBalanceA",
      "outputs": [
        {
          "name": "_balanceA",
          "type": "uint256"
        }
      ],
      "payable": false,
      "stateMutability": "pure",
      "type": "function"
    },
    {
      "constant": true,
      "inputs": [
        {
          "name": "_state",
          "type": "bytes"
        }
      ],
      "name": "getBalanceB",
      "outputs": [
        {
          "name": "_balanceB",
          "type": "uint256"
        }
      ],
      "payable": false,
      "stateMutability": "pure",
      "type": "function"
    },
    {
      "constant": true,
      "inputs": [
        {
          "name": "_state",
          "type": "bytes"
        }
      ],
      "name": "getTokenAddress",
      "outputs": [
        {
          "name": "_token",
          "type": "address"
        }
      ],
      "payable": false,
      "stateMutability": "pure",
      "type": "function"
    },
    {
      "constant": true,
      "inputs": [
        {
          "name": "_state",
          "type": "bytes"
        }
      ],
      "name": "getEngagementDeadline",
      "outputs": [
        {
          "name": "_engagementDeadline",
          "type": "uint256"
        }
      ],
      "payable": false,
      "stateMutability": "pure",
      "type": "function"
    },
    {
      "constant": true,
      "inputs": [
        {
          "name": "_state",
          "type": "bytes"
        }
      ],
      "name": "getAssertionDeadline",
      "outputs": [
        {
          "name": "_assertionDeadline",
          "type": "uint256"
        }
      ],
      "payable": false,
      "stateMutability": "pure",
      "type": "function"
    },
    {
      "constant": true,
      "inputs": [
        {
          "name": "_state",
          "type": "bytes"
        }
      ],
      "name": "getOfferState",
      "outputs": [
        {
          "name": "_guid",
          "type": "bytes32"
        },
        {
          "name": "_amount",
          "type": "uint256"
        },
        {
          "name": "_artifactHash",
          "type": "bytes32"
        },
        {
          "name": "_artifactURI",
          "type": "bytes32"
        },
        {
          "name": "_engagementDeadline",
          "type": "uint256"
        },
        {
          "name": "_assertionDeadline",
          "type": "uint256"
        },
        {
          "name": "_commitment",
          "type": "bytes32"
        },
        {
          "name": "_assertion",
          "type": "bytes32"
        },
        {
          "name": "_meta",
          "type": "bytes32"
        }
      ],
      "payable": false,
      "stateMutability": "pure",
      "type": "function"
    },
    {
      "constant": true,
      "inputs": [
        {
          "name": "_state",
          "type": "bytes"
        }
      ],
      "name": "getTotal",
      "outputs": [
        {
          "name": "",
          "type": "uint256"
        }
      ],
      "payable": false,
      "stateMutability": "pure",
      "type": "function"
    },
    {
      "constant": false,
      "inputs": [
        {
          "name": "_state",
          "type": "bytes"
        }
      ],
      "name": "open",
      "outputs": [
        {
          "name": "",
          "type": "bool"
        }
      ],
      "payable": false,
      "stateMutability": "nonpayable",
      "type": "function"
    },
    {
      "constant": true,
      "inputs": [
        {
          "name": "_state",
          "type": "bytes"
        }
      ],
      "name": "join",
      "outputs": [
        {
          "name": "",
          "type": "bool"
        }
      ],
      "payable": false,
      "stateMutability": "view",
      "type": "function"
    },
    {
      "constant": false,
      "inputs": [
        {
          "name": "_state",
          "type": "bytes"
        }
      ],
      "name": "update",
      "outputs": [
        {
          "name": "",
          "type": "bool"
        }
      ],
      "payable": false,
      "stateMutability": "nonpayable",
      "type": "function"
    },
    {
      "constant": false,
      "inputs": [
        {
          "name": "tokenAddress",
          "type": "address"
        }
      ],
      "name": "cancel",
      "outputs": [
        {
          "name": "",
          "type": "bool"
        }
      ],
      "payable": false,
      "stateMutability": "nonpayable",
      "type": "function"
    },
    {
      "constant": false,
      "inputs": [
        {
          "name": "_state",
          "type": "bytes"
        }
      ],
      "name": "finalize",
      "outputs": [
        {
          "name": "",
          "type": "bool"
        }
      ],
      "payable": false,
      "stateMutability": "nonpayable",
      "type": "function"
    }
  ],
  "bytecode": "0x6111c2610030600b82828239805160001a6073146000811461002057610022565bfe5b5030600052607381538281f30073000000000000000000000000000000000000000030146080604052600436106100ee5763ffffffff60e060020a6000350416630aa0bd0081146100f35780631a3cb4f51461015b578063382f431b146101b957806342cf2f81146102265780634360f90f146102725780634c33fe94146103055780636170b162146103265780637608ff5214610372578063802ea720146103be57806383624c171461040a578063a026f01f14610456578063a0345fca146104a2578063aa3801d8146104fb578063b8a268c114610547578063bcd4c996146105a9578063c43ed2c8146105f5578063f64623f11461064e575b600080fd5b6040805160206004803580820135601f810184900484028501840190955284845261013f94369492936024939284019190819084018382808284375094975061069a9650505050505050565b60408051600160a060020a039092168252519081900360200190f35b6040805160206004803580820135601f81018490048402850184019095528484526101a79436949293602493928401919081908401838280828437509497506106a19650505050505050565b60408051918252519081900360200190f35b8180156101c557600080fd5b506040805160206004803580820135601f81018490048402850184019095528484526102129436949293602493928401919081908401838280828437509497506106a89650505050505050565b604080519115158252519081900360200190f35b6040805160206004803580820135601f81018490048402850184019095528484526101a79436949293602493928401919081908401838280828437509497506109049650505050505050565b6040805160206004803580820135601f81018490048402850184019095528484526102be94369492936024939284019190819084018382808284375094975061090b9650505050505050565b60408051998a5260208a0198909852888801969096526060880194909452608087019290925260a086015260c085015260e084015261010083015251908190036101200190f35b81801561031157600080fd5b50610212600160a060020a0360043516610952565b6040805160206004803580820135601f8101849004840285018401909552848452610212943694929360249392840191908190840183828082843750949750610a589650505050505050565b6040805160206004803580820135601f810184900484028501840190955284845261013f943694929360249392840191908190840183828082843750949750610bf89650505050505050565b6040805160206004803580820135601f81018490048402850184019095528484526101a7943694929360249392840191908190840183828082843750949750610bff9650505050505050565b6040805160206004803580820135601f810184900484028501840190955284845261013f943694929360249392840191908190840183828082843750949750610c329650505050505050565b6040805160206004803580820135601f81018490048402850184019095528484526101a7943694929360249392840191908190840183828082843750949750610c399650505050505050565b8180156104ae57600080fd5b506040805160206004803580820135601f8101849004840285018401909552848452610212943694929360249392840191908190840183828082843750949750610c419650505050505050565b6040805160206004803580820135601f810184900484028501840190955284845261013f943694929360249392840191908190840183828082843750949750610e9c9650505050505050565b6040805160206004803580820135601f8101849004840285018401909552848452610593943694929360249392840191908190840183828082843750949750610ea49650505050505050565b6040805160ff9092168252519081900360200190f35b6040805160206004803580820135601f81018490048402850184019095528484526101a7943694929360249392840191908190840183828082843750949750610eab9650505050505050565b81801561060157600080fd5b506040805160206004803580820135601f8101849004840285018401909552848452610212943694929360249392840191908190840183828082843750949750610eb39650505050505050565b6040805160206004803580820135601f81018490048402850184019095528484526101a794369492936024939284019190819084018382808284375094975061117c9650505050505050565b6080015190565b60c0015190565b6000806106b483610c32565b600160a060020a03163314610739576040805160e560020a62461bcd02815260206004820152602a60248201527f5061727479204120646f6573206e6f74206d6163746368207369676e6174757260448201527f65207265636f7665727900000000000000000000000000000000000000000000606482015290519081900360840190fd5b61074283610e9c565b905061074d836106a1565b81600160a060020a031663dd62ed3e61076586610c32565b6040805160e060020a63ffffffff8516028152600160a060020a0390921660048301523060248301525160448083019260209291908290030181600087803b1580156107b057600080fd5b505af11580156107c4573d6000803e3d6000fd5b505050506040513d60208110156107da57600080fd5b505114610857576040805160e560020a62461bcd02815260206004820152602d60248201527f76616c756520646f6573206e6f74206d6174636820616d6261737361646f722060448201527f73746174652062616c616e636500000000000000000000000000000000000000606482015290519081900360840190fd5b80600160a060020a03166323b872dd61086f85610c32565b30610879876106a1565b6040805160e060020a63ffffffff8716028152600160a060020a0394851660048201529290931660248301526044820152905160648083019260209291908290030181600087803b1580156108cd57600080fd5b505af11580156108e1573d6000803e3d6000fd5b505050506040513d60208110156108f757600080fd5b5060019250505b50919050565b6040015190565b6101208101516101408201516101608301516101808401516101a08501516101c08601516101e0870151610200880151610220909801519698959794969395929491939092565b6040805160e060020a6370a0823102815230600482015290516000918391600160a060020a0383169163a9059cbb91339184916370a082319160248082019260209290919082900301818b87803b1580156109ac57600080fd5b505af11580156109c0573d6000803e3d6000fd5b505050506040513d60208110156109d657600080fd5b50516040805160e060020a63ffffffff8616028152600160a060020a03909316600484015260248301919091525160448083019260209291908290030181600087803b158015610a2557600080fd5b505af1158015610a39573d6000803e3d6000fd5b505050506040513d6020811015610a4f57600080fd5b50519392505050565b600080610a6483610e9c565b9050610a6f8361069a565b600160a060020a03163314610af4576040805160e560020a62461bcd02815260206004820152602a60248201527f5061727479204220646f6573206e6f74206d6163746368207369676e6174757260448201527f65207265636f7665727900000000000000000000000000000000000000000000606482015290519081900360840190fd5b6040805160e060020a6370a082310281523060048201529051600160a060020a038316916370a082319160248083019260209291908290030181600087803b158015610b3f57600080fd5b505af1158015610b53573d6000803e3d6000fd5b505050506040513d6020811015610b6957600080fd5b5051610b7484610bff565b14610bef576040805160e560020a62461bcd02815260206004820152603260248201527f746f6b656e20746f74616c206465706f736974656420646f6573206e6f74206d60448201527f617463682073746174652062616c616e63650000000000000000000000000000606482015290519081900360840190fd5b50600192915050565b60a0015190565b6000806000610c0d846106a1565b9150610c188461117c565b9050610c2a828263ffffffff61118316565b949350505050565b6060015190565b6101a0015190565b600080600080610c5085610c32565b9250610c5b8561069a565b9150610c6685610e9c565b6040805160e060020a6370a082310281523060048201529051919250600160a060020a038316916370a08231916024808201926020929091908290030181600087803b158015610cb557600080fd5b505af1158015610cc9573d6000803e3d6000fd5b505050506040513d6020811015610cdf57600080fd5b5051610cea86610bff565b14610d65576040805160e560020a62461bcd02815260206004820152603c60248201527f74726965642066696e616c697a696e6720746f6b656e2073746174652074686160448201527f7420646f6573206e6f74206d6174636820626e6465642076616c756500000000606482015290519081900360840190fd5b80600160a060020a031663a9059cbb84610d7e886106a1565b6040518363ffffffff1660e060020a0281526004018083600160a060020a0316600160a060020a0316815260200182815260200192505050602060405180830381600087803b158015610dd057600080fd5b505af1158015610de4573d6000803e3d6000fd5b505050506040513d6020811015610dfa57600080fd5b5050600160a060020a03811663a9059cbb83610e158861117c565b6040518363ffffffff1660e060020a0281526004018083600160a060020a0316600160a060020a0316815260200182815260200192505050602060405180830381600087803b158015610e6757600080fd5b505af1158015610e7b573d6000803e3d6000fd5b505050506040513d6020811015610e9157600080fd5b509395945050505050565b610100015190565b6020015190565b6101c0015190565b600080610ebf83610e9c565b9050600081600160a060020a031663dd62ed3e610edb86610c32565b6040805160e060020a63ffffffff8516028152600160a060020a0390921660048301523060248301525160448083019260209291908290030181600087803b158015610f2657600080fd5b505af1158015610f3a573d6000803e3d6000fd5b505050506040513d6020811015610f5057600080fd5b505111156110815780600160a060020a03166323b872dd610f7085610c32565b3084600160a060020a031663dd62ed3e610f8989610c32565b6040805160e060020a63ffffffff8516028152600160a060020a0390921660048301523060248301525160448083019260209291908290030181600087803b158015610fd457600080fd5b505af1158015610fe8573d6000803e3d6000fd5b505050506040513d6020811015610ffe57600080fd5b50516040805160e060020a63ffffffff8716028152600160a060020a0394851660048201529290931660248301526044820152905160648083019260209291908290030181600087803b15801561105457600080fd5b505af1158015611068573d6000803e3d6000fd5b505050506040513d602081101561107e57600080fd5b50505b6040805160e060020a6370a082310281523060048201529051600160a060020a038316916370a082319160248083019260209291908290030181600087803b1580156110cc57600080fd5b505af11580156110e0573d6000803e3d6000fd5b505050506040513d60208110156110f657600080fd5b505161110184610bff565b146108fe576040805160e560020a62461bcd02815260206004820152603260248201527f746f6b656e20746f74616c206465706f736974656420646f6573206e6f74206d60448201527f617463682073746174652062616c616e63650000000000000000000000000000606482015290519081900360840190fd5b60e0015190565b8181018281101561119057fe5b929150505600a165627a7a723058209c6716c4ca54377a5212da09b325bdbc1836b52eca45daba4e9210cb34cb58020029",
  "source": "pragma solidity ^0.4.23;\n\nimport \"./NectarToken.sol\";\nimport \"zeppelin-solidity/contracts/math/SafeMath.sol\";\n\n/*\n    Lib for preforming actions based on offer state\n*/\n\nlibrary OfferLib {\n\n    using SafeMath for uint256;\n    \n    // TODO: Think about removing useless state varibles and or replacing with merkle root\n\n    // State Map\n    /// @dev Required State\n    // [0-31] is close flag\n    // [32-63] nonce\n    // [64-95] ambassador address\n    // [96-127] expert address\n    // [128-159] msig address\n    // [160-191] balance in nectar for ambassador\n    // [192-223] balance in nectar for expert\n    // [224-255] token address\n    // [256-287] A globally-unique identifier for the Listing.\n    // [288-319] The Offer Amount.\n\n    /// @dev Optional State\n    // [320-351] Cryptographic hash of the Artifact.\n    // [352-383] The IPFS URI of the Artifact.\n    // [384-415] Engagement Deadline\n    // [416-447] Assertion Deadline\n    // [448-479] current commitment\n    // [480-511] bitmap of verdicts\n    // [512-543] meta data\n\n\n    function getCloseFlag(bytes _state) public pure returns(uint8 _flag) {\n        assembly {\n            _flag := mload(add(_state, 32))\n        }\n    }\n\n    function getSequence(bytes _state) public pure returns(uint256 _seq) {\n        assembly {\n            _seq := mload(add(_state, 64))\n        }\n    }\n\n    function getPartyA(bytes _state) public pure returns(address _ambassador) {\n        assembly {\n            _ambassador := mload(add(_state, 96))\n        }\n    }\n\n    function getPartyB(bytes _state) public pure returns(address _expert) {\n        assembly {\n            _expert := mload(add(_state, 128))\n        }\n    }\n\n    function getMultiSigAddress(bytes _state) public pure returns(address _multisig) {\n        assembly {\n            _multisig := mload(add(_state, 160))\n        }\n    }\n\n    function getBalanceA(bytes _state) public pure returns(uint256 _balanceA) {\n        assembly {\n            _balanceA := mload(add(_state,192))\n        }\n    }\n\n    function getBalanceB(bytes _state) public pure returns(uint256 _balanceB) {\n        assembly {\n            _balanceB := mload(add(_state,224))\n        }\n    }\n\n    function getTokenAddress(bytes _state) public pure returns (address _token) {\n        assembly {\n            _token := mload(add(_state,256))\n        }\n    }\n\n    function getEngagementDeadline(bytes _state) public pure returns (uint256 _engagementDeadline) {\n        assembly {\n            _engagementDeadline := mload(add(_state, 416))\n        }\n    }\n\n    function getAssertionDeadline(bytes _state) public pure returns (uint256 _assertionDeadline) {\n        assembly {\n            _assertionDeadline := mload(add(_state, 448))\n        }\n    }\n\n    function getOfferState(bytes _state) public pure returns \n        ( bytes32 _guid, uint256 _amount, bytes32 _artifactHash, bytes32 _artifactURI,\n        uint256 _engagementDeadline, uint256 _assertionDeadline, bytes32 _commitment,\n        bytes32 _assertion, bytes32 _meta) {\n        assembly {\n            _guid := mload(add(_state, 288)) // [256-287] A globally-unique identi er for the Listing.\n            _amount := mload(add(_state, 320)) // [288-319] The Offer Amount.\n            _artifactHash := mload(add(_state, 352)) // [320-351] Cryptographic hash of the Artifact.\n            _artifactURI := mload(add(_state, 384)) // [352-383] The IPFS URI of the Artifact.\n            _engagementDeadline := mload(add(_state, 416)) // [384-415] Engagement Deadline\n            _assertionDeadline := mload(add(_state, 448)) // [416-447] Assertion Deadline\n            _commitment := mload(add(_state, 480)) // [448-479] commitment\n            _assertion := mload(add(_state, 512)) // [480-511] bitmap of verdicts\n            _meta := mload(add(_state, 544)) // [512-543] Information derived during Assertion generation\n        }\n    }\n\n    function getTotal(bytes _state) public pure returns(uint256) {\n        uint256 _a = getBalanceA(_state);\n        uint256 _b = getBalanceB(_state);\n\n        return _a.add(_b);\n    }\n\n    function open(bytes _state) public returns (bool) {\n        require(msg.sender == getPartyA(_state), 'Party A does not mactch signature recovery');\n        // get the token instance used to allow funds to msig\n        NectarToken _t = NectarToken(getTokenAddress(_state));\n        // ensure the amount sent to open channel matches the signed state balance\n        require(_t.allowance(getPartyA(_state), this) == getBalanceA(_state), 'value does not match ambassador state balance');\n\n        // complete the tranfer of ambassador approved tokens\n        _t.transferFrom(getPartyA(_state), this, getBalanceA(_state));\n        return true;\n    }\n\n    function join(bytes _state) public view returns (bool) {\n        // get the token instance used to allow funds to msig\n        NectarToken _t = NectarToken(getTokenAddress(_state));\n        \n        // ensure the amount sent to join channel matches the signed state balance\n        require(msg.sender == getPartyB(_state), 'Party B does not mactch signature recovery');\n\n        // Require bonded is the sum of balances in state\n        require(getTotal(_state) == _t.balanceOf(this), 'token total deposited does not match state balance');\n\n        return true;\n    }\n\n    function update(bytes _state) public returns (bool) {\n        // get the token instance used to allow funds to msig\n        NectarToken _t = NectarToken(getTokenAddress(_state));\n\n        if(_t.allowance(getPartyA(_state), this) > 0) {\n            _t.transferFrom(getPartyA(_state), this, _t.allowance(getPartyA(_state), this));\n        }\n\n        require(getTotal(_state) == _t.balanceOf(this), 'token total deposited does not match state balance');\n    }\n\n    function cancel(address tokenAddress) public returns (bool) {\n        NectarToken _t = NectarToken(tokenAddress);\n\n        return _t.transfer(msg.sender, _t.balanceOf(this));\n    }\n\n    function finalize(bytes _state) public returns (bool) {\n        address _a = getPartyA(_state);\n        address _b = getPartyB(_state);\n\n        NectarToken _t = NectarToken(getTokenAddress(_state));\n        require(getTotal(_state) == _t.balanceOf(this), 'tried finalizing token state that does not match bnded value');\n\n        _t.transfer(_a, getBalanceA(_state));\n        _t.transfer(_b, getBalanceB(_state));\n    }\n}",
  "sourcePath": "/contracts/OfferLib.sol",
  "compiler": {
    "name": "solc",
    "version": "0.4.24+commit.e67f0147.Emscripten.clang"
  },
  "schemaVersion": "2.0.0",
  "updatedAt": "2018-06-19T22:43:52.551Z"
}